:020000020000FC
:1000000001E20EBF0FEF0DBF0BEE0F930BEB0F9343
:1000100006E20F9308E00F930BE20F930EE70F93A6
:1000200001EF0F930AE40F9300E20F9307EE0F9393
:100030000BE40F930FE20F9304EB0F930DEE0F936E
:1000400001E50F9303ED0F930DE10F930DE40F9373
:1000500007E20F9303E50F930FEF01B902B920E018
:1000600035E141E00C943B00002700E002B90E941A
:1000700067000C940000341B3417A9F000270FEF21
:100080001127222702B90E9467000F91200F02B9A1
:100090000E945D0000270FEF02B90E94670013B1B4
:1000A000121711F741F30FEF02B90E945D0000E053
:1000B00002B90E945D000C94530068E778E788E776
:1000C0008A95F1F77A95D9F76A95C1F7089568ECA2
:1000D00078EC88EC8A95F1F77A95D9F76A95C1F7AB
:0200E000089581
:00000001FF
